:100000000C9406010C942E010C942E010C94670E96
:100010000C94670E0C94670E0C942E010C942E0118
:100020000C942E010C942E010C942E010C942E0194
:100030000C942E010C942E010C942E010C942E0184
:100040000C941D0E0C942E010C94EB0D0C94C50D0C
:100050000C942E010C942E010C942E010C942E0164
:100060000C942E010C942E0108000000BE9224492D
:10007000123EABAAAA2ABECDCCCC4C3E00000080DA
:10008000BEABAAAAAA3E00000000BF000000803F4D
:100090000000000000084178D3BB4387D1133D190D
:1000A0000E3CC3BD4282AD2B3E68EC8276BED98F3A
:1000B000E1A93E4C80EFFFBE01C4FF7F3F0000007E
:1000C000000007634236B79BD8A71A39685618AEA6
:1000D000BAAB558C1D3CB7CC5763BD6DEDFD753E7D
:1000E000F6177231BF000000803F000000002400BE
:1000F00027002A0000000008000201000003040796
:100100000000000000000000444854787820746526
:1001100073742100C2B04600C2B0432000C2B04692
:1001200020204865617420696E6465783A2000C2B9
:10013000B043200025202054656D70657261747590
:1001400072653A200048756D69646974793A2000D7
:100150004661696C656420746F2072656164206615
:10016000726F6D204448542073656E736F72210066
:10017000C2B04600C2B0432000C2B046202048654D
:10018000617420696E6465783A2000C2B043200033
:1001900025202054656D70657261747572653A2012
:1001A0000048756D69646974793A20004661696C2C
:1001B000656420746F20726561642066726F6D20C3
:1001C0004448542073656E736F7221000000000074
:1001D00023002600290000000000250028002B0035
:1001E00004040404040404040202020202020303DD
:1001F00003030303010204081020408001020408E5
:100200001020010204081020DF0EED1611241FBE7D
:10021000CFEFD8E0DEBFCDBF12E0A0E0B1E0EAE969
:10022000F7E302C005900D92A835B107D9F724E095
:10023000A8E5B2E001C01D92AE31B207E1F711E0CE
:10024000C5E0D1E004C02197FE010E94841BC430A8
:10025000D107C9F70E94B40F0C94C01B0C94000086
:10026000CF92DF92EF92FF92CF93DF93B091610331
:10027000A0E08111AB2F8091620390E0880F991F5D
:10028000AC0144535E4FC0906703D0906803E09088
:100290006903F0906A0330E020E0FA01C591D4913F
:1002A000E881B90190E080E0EB23EA130AC02F5FF8
:1002B0003F4F6C157D058E059F0578F36FEF7FEF3F
:1002C000CB01DF91CF91FF90EF90DF90CF90089519
:1002D0000F931F93CF93DF93C0910104E2E0F4E00A
:1002E000CD3211F0E1E0F4E08F0120E030E0A9012F
:1002F000D801DD918D0180ED8D0F8A3090F4AAE058
:10030000B0E00E948A1B2D2FDD0F330B440B550BE1
:10031000260F371F481F591F205331094109510922
:10032000E7CFA4E6B0E00E948A1BAB01BC01DF016D
:10033000819190ED980F9A30D0F38E3259F5119645
:100340008C91119790ED980F9A3020F5082E000CA3
:10035000990BC0972AE0289F8001299F100D112436
:10036000012E000C220B330B400F511F621F731F15
:1003700012968C9190ED980F9A3060F4082E000C34
:10038000990BC097092E000CAA0BBB0B480F591FE5
:100390006A1F7B1FCD3239F4709560955095419559
:1003A0005F4F6F4F7F4FCB01BA01DF91CF911F910C
:1003B0000F9108954F925F926F927F928F929F92CA
:1003C000AF92BF92CF92DF92EF92FF921F93CF93A3
:1003D000DF93C1E0D4E0FE01C12CD12C7601119154
:1003E00080ED810F8A30A8F4AAE0B0E0A701960161
:1003F0000E948A1BC12E110FDD08EE08FF08C60EF1
:10040000D71EE81EF91E80E3C81AD108E108F108DA
:10041000E6CFC701B60124E630E040E050E00E949C
:10042000621B9B01AC0160EA76E881E090E00E94EB
:100430003E1B4B015C019E01899190ED980F9A3013
:10044000D0F38E3221F5E901219680E1482E87E232
:10045000582E612C712CA99180ED8A0F8A30B8F446
:100460000A2E000CBB0BD097A30192010E94951B92
:10047000860E971EA81EB91EC301B2012AE030E005
:1004800040E050E00E94621B29013A01E4CFC7011D
:10049000B60124E630E040E050E00E94621B60E4D8
:1004A00072E48FE090E00E943E1B6B017C01C5016D
:1004B000B4016D5F7F4F8F4F9F4F26E030E040E0EB
:1004C00050E00E94621BC701B601620F731F841FB8
:1004D000951FDF91CF911F91FF90EF90DF90CF900C
:1004E000BF90AF909F908F907F906F905F904F9054
:1004F0000895DC01ED91FC910190F081E02D0994CB
:10050000AF92BF92CF92DF92EF92FF920F931F9321
:10051000CF93DF936C017B018B01040F151FEB015F
:100520005E01AE18BF08C017D10759F06991D60116
:10053000ED91FC910190F081E02DC6010995892B88
:1005400079F7C501DF91CF911F910F91FF90EF9047
:10055000DF90CF90BF90AF900895FC01538D448DF4
:10056000252F30E0842F90E0821B930B541710F05E
:10057000CF96089501970895FC01918D828D98176B
:1005800061F0A28DAE0FBF2FB11D5D968C91928D43
:100590009F5F9F73928F90E008958FEF9FEF089574
:1005A000FC01918D828D981731F0828DE80FF11D3D
:1005B000858D90E008958FEF9FEF0895FC01918D58
:1005C000228D892F90E0805C9F4F821B91098F7351
:1005D0009927089585EA92E00E94DE0221E0892BA6
:1005E00009F420E0822F089580E090E0892B29F023
:1005F0000E94EA0281110C9400000895FC01A48D70
:10060000A80FB92FB11DA35ABF4F2C91848D90E034
:1006100001968F739927848FA689B7892C93A08917
:10062000B1898C91837080648C93938D848D9813A1
:1006300006C00288F389E02D80818F7D8083089534
:10064000EF92FF920F931F93CF93DF93EC0181E022
:10065000888F9B8D8C8D98131AC0E889F9898081C9
:1006600085FF15C09FB7F894EE89FF896083E889FC
:10067000F98980818370806480839FBF81E090E0EE
:10068000DF91CF911F910F91FF90EF900895F62E7B
:100690000B8D10E00F5F1F4F0F731127E02E8C8D15
:1006A0008E110CC00FB607FCFACFE889F98980815A
:1006B00085FFF5CFCE010E94FE02F1CFEB8DEC0F4E
:1006C000FD2FF11DE35AFF4FF0829FB7F8940B8F77
:1006D000EA89FB8980818062CFCFCF93DF93EC01E1
:1006E000888D8823B9F0AA89BB89E889F9898C911A
:1006F00085FD03C0808186FD0DC00FB607FCF7CFD6
:100700008C9185FFF2CF808185FFEDCFCE010E94D5
:10071000FE02E9CFDF91CF91089590E0FC01EC500B
:10072000FF4F2491FC01EC50FE4F3491FC01E0524C
:10073000FE4FE491EE23C9F0222339F0233001F17A
:10074000A8F4213019F1223029F1F0E0EE0FFF1F5B
:10075000EA52FE4FA591B4918FB7F894EC916111D4
:1007600026C030953E233C938FBF08952730A9F0D3
:100770002830C9F0243049F7809180008F7D03C074
:10078000809180008F7780938000DFCF84B58F7752
:1007900084BDDBCF84B58F7DFBCF8091B0008F7798
:1007A0008093B000D2CF8091B0008F7DF9CF3E2BE7
:1007B000DACFCF93DF9390E0FC01EC50FE4F249111
:1007C00080529E4FFC0184918823C9F090E0880FED
:1007D000991FFC01E651FF4FA591B491FC01EA522B
:1007E000FE4FC591D49161110DC09FB7F8948C91C3
:1007F000209582238C938881282328839FBFDF91B3
:10080000CF910895623051F49FB7F8943C91822FB4
:10081000809583238C93E8812E2BEFCF8FB7F894AC
:10082000EC912E2B2C938FBFEACF0F931F93CF9376
:10083000DF93EC01162F042F1B821A8288EE93E0BF
:10084000A0E0B0E08C839D83AE83BF838CE291E017
:10085000998388831F8A1E8A198E188E1B8E1A8E82
:100860001D8E1C8E6E8D6E7F6D7F6E8F6695617096
:1008700081E06827842F0E948D0361E0802F0E9411
:10088000D903802F90E0FC01EC50FE4FE491E88BFF
:10089000FC01E052FE4FE491F0E0EE0FFF1FEA5240
:1008A000FE4F859194919A8B898B60E0812F0E94F5
:1008B000D9038E8D81FD04C061E0812F0E948D03DC
:1008C0001C87812F90E0FC01EC50FE4FE491ED87F6
:1008D000FC01E052FE4FE491F0E0EE0FFF1FE45305
:1008E000FE4F859194919F878E87DF91CF911F91C5
:1008F0000F9108958E3008F08E5087708064809339
:100900007C0080917A00806480937A0080917A00E4
:1009100086FDFCCF809178009091790008953FB7D3
:10092000F89480919D0290919E02A0919F02B091B7
:10093000A00226B5A89B05C02F3F19F00196A11D66
:10094000B11D3FBFBA2FA92F982F8827BC01CD0119
:10095000620F711D811D911D42E0660F771F881F78
:10096000991F4A95D1F708958F929F92AF92BF92A7
:10097000CF92DF92EF92FF926B017C010E948F0475
:100980004B015C01C114D104E104F104B9F00E94EF
:100990008F04681979098A099B09683E73408105AB
:1009A000910580F321E0C21AD108E108F10888EE30
:1009B000880E83E0981EA11CB11CE4CFFF90EF903D
:1009C000DF90CF90BF90AF909F908F9008954F92FF
:1009D0005F926F927F92AF92BF92CF92DF92EF922F
:1009E000FF920F931F93CF93DF9305E010E0C12C8C
:1009F000D12C7601AA24AA9483E0B82E8EE00E941E
:100A00007A04EC01B501681B790B072E000C880BEA
:100A1000990B0E94451820E030E040EA50E40E9423
:100A20004A192B013C01BE01DD0F880B990B0E9476
:100A300045189B01AC01C301B2010E949B179B01A9
:100A4000AC01C701B6010E942A176B017C0169E164
:100A500070E080E090E00E94B4040150110971F64A
:100A600020E030E040EA50E4C701B6010E949B1745
:100A7000DF91CF911F910F91FF90EF90DF90CF907A
:100A8000BF90AF907F906F905F904F9008952FB779
:100A9000F8946091990270919A0280919B029091D2
:100AA0009C022FBF0895CF92DF92EF92FF920F9397
:100AB0001F93CF93DF93CDB7DEB7C054D1400FB6AD
:100AC000F894DEBF0FBECDBF0E94470500916303BF
:100AD0001091640320916503309166036B017C01E2
:100AE000C01AD10AE20AF30A97018601003D1740B5
:100AF0002105310590F480916B03C05CDE4F0FB689
:100B0000F894DEBF0FBECDBFDF91CF911F910F9143
:100B1000FF90EF90DF90CF90089560936303709300
:100B20006403809365039093660310925E031092B2
:100B30005D0310925C0310925B0310925A0362E013
:100B400080915F030E94D90361E070E080E090E053
:100B50000E94B40461E080915F030E94D90360E0C9
:100B600080915F030E948D038091600385518230E4
:100B700020F58BE291E10197F1F762E080915F034C
:100B80000E94D90380916C0390E08230910538F087
:100B9000880F991F880F991F05970197F1F7F8940F
:100BA00080E00E9430016F3F7F4F8F4F9F4F61F475
:100BB00010926B03789480E0A0CF64E170E080E055
:100BC00090E00E94B404D9CF81E00E9430016F3FD1
:100BD0007F4F8F4F9F4F61F38E010F5F1F4F6E014D
:100BE0002FEBC21A2EEFD20A780180E00E9430016A
:100BF000F701608371838283938381E00E943001D7
:100C0000F7016483758386839783F8E0EF0EF11C08
:100C1000EC14FD0451F7789430E020E0F801C08036
:100C2000D180E280F3804481558166817781FFEF36
:100C3000CF16DF06EF06FF0631F04F3F8FEF580764
:100C40006807780719F410926B03B5CFF90183E0B8
:100C5000F595E7958A95E1F7E65AFC4F8081880F74
:100C6000C416D506E606F70610F180832F5F3F4FC6
:100C7000085F1F4F2832310589F640915E032091AD
:100C80005A0380915B03280F3327331F80915C0345
:100C9000280F311D80915D03820F932F911D99279D
:100CA0004817190681F681E080936B0326CF816097
:100CB000DCCFCF92DF92EF92FF92CF93DF93C82FDA
:100CC0000E945305882341F0809160038C3009F421
:100CD0005EC038F48B30F1F060E070E080EC9FE7AC
:100CE0004FC085518230C0F7D0915C036D2F70E00A
:100CF000762F662766277F7780915D03682B90E0CB
:100D000080E00E9443182DEC3CEC4CEC5DE30E942B
:100D10004A1959C060915C0370E090E080E00E9445
:100D200043186B017C01D0915D03D7FF0AC0AC0171
:100D30009B0160E070E080E89FEB0E9429176B0147
:100D40007C01DF706D2F70E090E080E00E9445181C
:100D50002DEC3CEC4CEC5DE30E944A19A701960196
:100D60000E942A17CC2361F026E636E646EE5FE3C2
:100D70000E944A1920E030E040E052E40E942A1725
:100D8000DF91CF91FF90EF90DF90CF900895D091B9
:100D90005C036D2F70E090E080E00E9443186B01CF
:100DA0007C0160915D036F7070E090E080E00E94D4
:100DB00045182DEC3CEC4CEC5DE30E944A19A70170
:100DC00096010E942A17D7FFCDCF9058CBCFCF9254
:100DD000DF92EF92FF920E945305882349F08091A1
:100DE00060038B3028F08D3040F08551823030F137
:100DF00060E070E080EC9FE71CC060915B0370E0F6
:100E000090E080E00E9445182DEC3CEC4CEC5DE35A
:100E10000E944A196B017C0160915A0370E090E0D6
:100E200080E00E9445189B01AC01C701B6010E94F9
:100E30002A17FF90EF90DF90CF90089560915A03AA
:100E400070915B0376276727762790E080E00E9409
:100E500043182DEC3CEC4CEC5DE30E944A19E9CFC1
:100E60002091A3023091A4022817390771F49091C0
:100E7000A1028091A202981741F0E091A102F0E056
:100E8000E85AFD4F808190E008958FEF9FEF08951D
:100E90000895EF92FF920F931F93CF93DF93DC019E
:100EA0005C96ED90FC905D97E114F10479F481E09B
:100EB00090E013969C938E93129790E080E0DF91E0
:100EC000CF911F910F91FF90EF9008955196ED9162
:100ED000FC91529750968C915097982F90950FB700
:100EE0005E962C915E97122F127021FD6095F894FA
:100EF0002081112319F1282B2083E7012197F1F795
:100F000028E0462F50E0308160FF1AC0382B308334
:100F1000E7012197F1F7BA0175956795215089F797
:100F2000112381F08081892380830FBF5C968D918E
:100F30009C910197F1F781E090E0C1CF2923DCCFAC
:100F40003923E5CF9081892BEFCFEF92FF920F935A
:100F50001F93CF93DF938C017B01D0E0C0E0F701BA
:100F6000EC0FFD1F6491662339F0C8010E94490708
:100F7000892B11F02196F3CFCE01DF91CF911F91F4
:100F80000F91FF90EF9008952091A3023091A40259
:100F90002817390771F48091A2022091A10290E0F4
:100FA000805C9F4F821B910960E470E00E944E1BA1
:100FB000089590E080E008952091A3023091A4026A
:100FC00028173907B9F49091A1028091A2029817CD
:100FD00089F0E091A102F0E0E85AFD4F8081209174
:100FE000A10230E02F5F3F4F2F7333272093A102E0
:100FF00090E008958FEF9FEF0895E091A302F091A4
:10100000A402E817F90769F4A389B4899C9185893A
:10101000809589238C931092A4021092A30281E000
:10102000089580E00895CF93DF93EC011B8E1A8E14
:10103000198E188E1F8A1E8A8DE991E09D8F8C8FE4
:101040008C858631E0F52DEB30E03F8B2E8B2BE944
:1010500031E0398F288F2CE231E03B8F2A8F90913D
:101060006800883008F44EC021E08E3008F420E09B
:1010700081E001C0880F2A95EAF7892B80936800E8
:101080009C852DE630E0983050F02BE630E09E3025
:1010900030F02CE630E0963110F030E020E03C8B70
:1010A0002B8B292F30E0983078F581E001C0880F34
:1010B0009A95EAF78D8B8C8D9D8D0197F1F78A8D2E
:1010C0009B8D892BE1F08091A3029091A402C81717
:1010D000D907A9F0009711F00E94FD078E8D8E7F31
:1010E0008E8F1092A2021092A102D093A402C093FC
:1010F000A302EB89FC8980819D89892B8083DF9104
:10110000CF91089584E0B9CF9E3040F42850310942
:1011100081E001C0880F2A95EAF7CCCF2E50310923
:10112000F7CF089590E080E00895CF93DF93EC012E
:1011300060E08E810E948D0361E08E810E948D03AC
:1011400060E08E810E948D038BE891E00197F1F7BA
:10115000DF91CF910895CF92DF92EF92FF920F939C
:101160001F93CF93DF936C017C0187E0E80EF11CA5
:10117000D0E0C0E0062F10E0B8010C2E02C075953B
:1011800067950A94E2F76170F70181917F010E94EF
:101190008D032196C430D10579F7C601DF91CF9137
:1011A0001F910F91FF90EF90DF90CF900C949508D6
:1011B000CF92DF92EF92FF920F931F93CF93DF9323
:1011C000EC01F62E642F8C810E948D038D818F3F60
:1011D00019F060E00E948D030F2D10E08F8584FFD1
:1011E00025C06E0187E0C80ED11CF12CE12CB8019E
:1011F0000E2C02C0759567950A94E2F76170F601AE
:1012000081916F010E948D03FFEFEF1AFF0A88E0C2
:10121000E816F10461F7CE01DF91CF911F910F9194
:10122000FF90EF90DF90CF900C949508B80184E088
:10123000759567958A95E1F7CE010E94AB086F2DF1
:10124000CE01DF91CF911F910F91FF90EF90DF9032
:10125000CF900C94AB0840E0682F82E493E00C94AC
:10126000D80881E00E942B098BE39FE10197F1F7F9
:101270000895CF93DF93623029F4909151039860E1
:1012800090935103609355031092560390E490930A
:10129000570380935803805C8093590361E08091E9
:1012A00046030E94D903809147038F3F19F061E004
:1012B0000E94D90361E0809148030E94D903C2E4EF
:1012C000D3E09E01225433408091510384FD0BC032
:1012D00084E090E021962817390744F461E08E817C
:1012E0000E94D903EECF88E090E0F4CF8BE39DE03D
:1012F0000197F1F760E0809146030E948D0360E062
:10130000809148030E948D03809147038F3F19F01D
:1013100060E00E948D038091510384FD34C063E03E
:1013200082E493E00E94AB08CBE4D6E4CE010197BF
:10133000F1F763E082E493E00E94AB082197F1F7B4
:1013400063E082E493E00E94AB0883E592E00197BA
:10135000F1F762E082E493E00E94AB0880915103D0
:1013600080620E942B0984E0809352038CE00E94EB
:101370002B090E94310982E08093530386E0DF91BC
:10138000CF910C942B0980620E942B098BE496E488
:101390000197F1F78091510380620E942B0983E548
:1013A00092E00197F1F78091510380620E942B092E
:1013B000D5CF90915503891710F08FEF890FE82F43
:1013C000F0E0EE5BFC4F848980680C942B0941E0CF
:1013D0000E94D80881E090E008954F925F926F924A
:1013E0007F928F929F92AF92BF92CF92DF92EF92B5
:1013F000FF920F93CF93DF93CDB7DEB728970FB649
:10140000F894DEBF0FBECDBF6B017C0149015A01CC
:1014100001110EC026E636E646EE5FE30E944A1949
:1014200020E030E040E052E40E942A176B017C018A
:1014300020E030E048E852E4C701B6010E942917D5
:101440002AE939E949E95FE30E944A192B013C0185
:1014500020E030E044E752E4C701B6010E942A17B9
:101460009B01AC01C301B2010E942A172B013C0170
:1014700022E133E840EC5DE3C501B4010E944A1962
:101480009B01AC01C301B2010E942A1720E030E0A9
:1014900040E05FE30E944A192B013C0120E030E06C
:1014A0004EE952E40E94F51818160CF023C1A7016A
:1014B0009601C701B6010E944A192B013C01A50102
:1014C0009401C501B4010E944A196D837E838F8304
:1014D000988721E133E243E050E4C701B6010E945E
:1014E0004A1929E134E849E252E40E942917698344
:1014F0007A838B839C8326E13BE442E251E4C5017D
:10150000B4010E944A199B01AC0169817A818B81E7
:101510009C810E942A1769837A838B839C8328E4A9
:1015200036E246E65EEBC701B6010E944A19A50104
:1015300094010E944A199B01AC0169817A818B81D7
:101540009C810E942A1769837A838B839C8320EE77
:101550003FE040EE5BEBC301B2010E944A199B01E0
:10156000AC0169817A818B819C810E942A176983F1
:101570007A838B839C8328EF37E840E65DEB6D81AF
:101580007E818F8198850E944A199B01AC016981F7
:101590007A818B819C810E942A1769837A838B834D
:1015A0009C832CEA3DE041EA5AE3C301B2010E9468
:1015B0004A19A50194010E944A199B01AC01698155
:1015C0007A818B819C810E942A1769837A838B831D
:1015D0009C8328EC3FE84FE55AE3C701B6010E941F
:1015E0004A192D813E814F8158850E944A199B01DD
:1015F000AC0169817A818B819C810E942A17698361
:101600007A838B839C8321EF3BE845E056EBC30153
:10161000B2010E944A192D813E814F8158850E9456
:101620004A199B01AC0169817A818B819C810E945E
:101630002A172B013C0120E030E040E551E4C501D0
:10164000B4010E94961787FF88C020E030E040EA8E
:1016500052E4C701B6010E94F51887FD7EC020E064
:1016600030E040EE52E4C701B6010E94961718160A
:101670000CF4BDC0A501940160E070E080E591E448
:101680000E94291720E030E040E85EE30E944A19FA
:101690004B015C0120E030E04EEB52E4C701B601A3
:1016A0000E9429176B017C0120E030E0A9010E9413
:1016B000F51818160CF048C0A701960160E070E01C
:1016C00088E891E40E9429172EE33DEE40E75DE3B0
:1016D0000E944A190E940D1A9B01AC01C501B40178
:1016E0000E944A199B01AC01C301B2010E94291753
:1016F0002B013C01011110C020E030E040E052E439
:10170000C301B2010E94291726E838E34EE05FE3E7
:101710000E944A192B013C01C301B20128960FB661
:10172000F894DEBF0FBECDBFDF91CF910F91FF9038
:10173000EF90DF90CF90BF90AF909F908F907F9071
:101740006F905F904F90089520E030E048E851E4BA
:10175000C701B6010E942A17B7CF20E030E04AEA5D
:1017600052E4C501B4010E94F51818161CF620E0D9
:1017700030E040EA52E4C701B6010E94F51887FD47
:10178000B9CF20E030E04EEA52E4C701B6010E9432
:10179000961718160CF4AECF20E030E04AEA52E477
:1017A000C501B4010E9429172DEC3CEC4CEC5DE323
:1017B0000E944A194B015C01A701960160E070E0AC
:1017C0008EEA92E40E9429172DEC3CEC4CE45EE397
:1017D0000E944A199B01AC01C501B4010E944A193B
:1017E0009B01AC01C301B2010E942A1781CF20E006
:1017F00030E04AEA52E4C501B4010E94F518181617
:101800000CF4BFCF77CFFB0101900020E9F73197AF
:10181000AF01461B570BDC01ED91FC910280F38177
:10182000E02D09948F929F92AF92BF92EF92FF9218
:101830000F931F93CF93DF93CDB7DEB7A1970FB66A
:10184000F894DEBF0FBECDBF7C01FA01CB0119A217
:10185000223008F42AE08E010F5D1F4F822E912C5A
:10186000B12CA12CBF01A50194010E94621BF901BA
:10187000CA016A300CF5605DD8016E938D01232B8F
:10188000242B252B79F790E080E0109721F0BD0103
:10189000C7010E94030CA1960FB6F894DEBF0FBEDD
:1018A000CDBFDF91CF911F910F91FF90EF90BF902F
:1018B000AF909F908F900895695CDECFCF92DF92BA
:1018C000EF92FF920F931F93CF93DF9377FF1DC08B
:1018D0006A017B01EC016DE20E9479028C014427D0
:1018E0005527BA014C195D096E097F092AE0CE011E
:1018F0000E94120C800F911FDF91CF911F910F91C9
:10190000FF90EF90DF90CF9008952AE0DF91CF9184
:101910001F910F91FF90EF90DF90CF900C94120CDD
:10192000CF93DF93BC018CE893E00E94030CEC01A1
:1019300068E571E08CE893E00E94030C8C0F9D1F1A
:10194000DF91CF9108952F923F924F925F926F92C5
:101950007F928F929F92AF92BF92CF92DF92EF923F
:10196000FF921F93CF93DF93EC016A017B01722EEC
:10197000AB019601CB01B6010E944D1A6BE571E0F7
:10198000811126C046015701E894B7F82FEF3FEFC9
:101990004FE75FE7C501B4010E944D1A81110CC0E9
:1019A0002FEF3FEF4FE75FE7C501B4010E949617A5
:1019B0006FE571E0181664F02FEF3FEF4FE75FE43B
:1019C000C701B6010E94F5181816B4F463E671E079
:1019D000CE01DF91CF911F91FF90EF90DF90CF90DC
:1019E000BF90AF909F908F907F906F905F904F903F
:1019F0003F902F900C94030C2FEF3FEF4FE75FECDD
:101A0000C701B6010E94961787FDE0CF20E030E0C5
:101A1000A901C701B6010E949617312C212C87FF1E
:101A200009C06DE2CE010E9479021C01F7FAF09420
:101A3000F7F8F09410E060E070E080E09FE371164A
:101A400041F020E030E040E251E40E949B171F5F2C
:101A5000F6CFA70196010E942A172B013C010E9494
:101A600014184B015C012AE0BC01A401CE010E94C4
:101A7000120C7C01E20CF31C1123C1F1C501B4016D
:101A80000E9443189B01AC01C301B2010E942917B7
:101A90004B015C016EE2CE010E947902E80EF91E54
:101AA000115020F120E030E040E251E4C501B401E2
:101AB0000E944A192B013C010E9414184B01B12CC1
:101AC000A12C2AE0B501A401CE010E94120CE80E5F
:101AD000F91EC501B4010E9443189B01AC01C3016A
:101AE000B2010E9429174B015C01DACFC701DF91D7
:101AF000CF911F91FF90EF90DF90CF90BF90AF906C
:101B00009F908F907F906F905F904F903F902F901D
:101B100008950C94A30C0F931F93CF93DF93EC01C4
:101B20000E94A5078C0168E571E0CE010E94030CBC
:101B3000800F911FDF91CF911F910F9108950C9409
:101B4000030CCF93DF93EA010E9402192C813D819F
:101B50004E815F810E942917288539854A855B85DA
:101B60000E949B17288139814A815B810E942A1734
:101B70009B01AC0160E070E080E291E40E94B71943
:101B80000E940D18DF91CF9108951F920F920FB60A
:101B90000F9211242F933F934F935F936F937F93F3
:101BA0008F939F93AF93BF93EF93FF9385EA92E058
:101BB0000E94FE02FF91EF91BF91AF919F918F9193
:101BC0007F916F915F914F913F912F910F900FBE39
:101BD0000F901F9018951F920F920FB60F9211241D
:101BE0002F938F939F93EF93FF93E091B502F09122
:101BF000B6028081E091BB02F091BC0282FD1BC065
:101C000090818091BE028F5F8F732091BF028217F7
:101C100041F0E091BE02F0E0EB55FD4F958F8093CF
:101C2000BE02FF91EF919F918F912F910F900FBE68
:101C30000F901F9018958081F4CF1F920F920FB6CE
:101C40000F9211242F933F938F939F93AF93BF9342
:101C50008091990290919A02A0919B02B0919C026E
:101C60003091980223E0230F2D3758F50196A11DDE
:101C7000B11D209398028093990290939A02A093A9
:101C80009B02B0939C0280919D0290919E02A09134
:101C90009F02B091A0020196A11DB11D80939D02EB
:101CA00090939E02A0939F02B093A002BF91AF9128
:101CB0009F918F913F912F910F900FBE0F901F908A
:101CC000189526E8230F0296A11DB11DD2CF1F92B1
:101CD0000F920FB60F9211242F933F934F935F9360
:101CE0006F937F938F939F93AF93BF93EF93FF93E4
:101CF000E091A302F091A402309749F0A685B78540
:101D00008585968D91FF14C09C918923A1F4FF9144
:101D1000EF91BF91AF919F918F917F916F915F9163
:101D20004F913F912F910F900FBE0F901F901895DC
:101D30009C91892361F7A389B4899C9185898095B9
:101D400089238C93868997890197F1F7608D718D2E
:101D5000A685B785558538E020E0CB010197F1F7DE
:101D6000822F90E095958795282F4C91452309F077
:101D70002068315091F7868D81FD20958091A202D7
:101D800090E001968F7399273091A102381799F04E
:101D9000A091A202B0E0A85ABD4F2C938093A2025A
:101DA000828D938D0197F1F7A389B4898C919589E0
:101DB000892B8C93ACCF868D8160868FF1CFCF93AA
:101DC000E5EAF2E01382128288EE93E0A0E0B0E050
:101DD00084839583A683B7838EE391E09183808388
:101DE00085EC90E09587848784EC90E097878687E0
:101DF00080EC90E0918B808B81EC90E0938B828BD8
:101E000082EC90E0958B848B86EC90E0978B868BB0
:101E1000118E128E138E148EEBEAF3E04FEF5FEF0C
:101E2000BA014083518362837383108611861286C0
:101E300013868FEF99ECAAE9BBE3808B918BA28B81
:101E4000B38B808F918FA28FB38F80A391A3A2A316
:101E5000B3A380A791A7A2A7B3A780AB91ABA2AB76
:101E6000B3AB40AF51AF62AF73AF8FEF90E09093E1
:101E7000EC038093EB034093EF035093F0036093E4
:101E8000F1037093F2034093F7035093F8036093C8
:101E9000F9037093FA031092FF0310920004C2E05A
:101EA000C0931004109211041092120410921304A3
:101EB0001092140410921504109216041092170434
:101EC000109219041092180410921B0410921A0414
:101ED000109201044AE069E08CE893E00E94150446
:101EE0004DE061E08DE693E00E941504AAE5B3E0C1
:101EF00088E015968C9315978BE016968C93169721
:101F0000ECEFF1E0E4911796EC931797E8EEF1E02F
:101F1000E4911896EC93189740E85EE360E070E077
:101F20001D964D935D936D937C935097E2E4F3E09F
:101F30001382128220E531E0318320839CE0948378
:101F40009FEF9583868385E0878384E0808783E0A5
:101F50008187C2871386148615861686178661E0E8
:101F600080E1CF910C943909CF93DF93CDB7DEB7E1
:101F700028970FB6F894DEBF0FBECDBF789484B516
:101F8000826084BD84B5816084BD85B5826085BD75
:101F900085B5816085BD80916E00816080936E0003
:101FA00010928100809181008260809381008091F5
:101FB00081008160809381008091800081608093A6
:101FC00080008091B10084608093B1008091B00066
:101FD00081608093B00080917A00846080937A0061
:101FE00080917A00826080937A0080917A0081608B
:101FF00080937A0080917A00806880937A001092B2
:10200000C10061E087E00E94D90361E086E00E94A0
:10201000D9038CE893E00E9413088DE693E00E94B8
:102020001308E091B502F091B60282E08083E0915E
:10203000B102F091B2021082E091B302F091B402C9
:102040008FEC80831092BD02E091B902F091BA0248
:1020500086E08083E091B702F091B80280818061D0
:102060008083E091B702F091B8028081886080831C
:10207000E091B702F091B802808180688083E0919E
:10208000B702F091B80280818F7D808368E071E0B3
:102090008DE693E00E948B0D62E080915F030E94C9
:1020A000D9030E944705605D7740810991096093DB
:1020B000630370936403809365039093660387E3DF
:1020C00080936C0364E670E080E090E00E94B404CA
:1020D00062E088E20E94390967E671E082E493E0F9
:1020E0000E949F0D02E310E0C12CD12C7601AA249E
:1020F000AA9423E0B22E8EE00E947A049A83898308
:10210000B501681B790B072E000C880B990B0E94F8
:10211000451820E030E040EA50E40E944A192B01C3
:102120003C0129813A81B901330F880B990B0E9438
:1021300045189B01AC01C301B2010E949B172B0102
:102140003C010E94310980E00E94D90922E030E080
:10215000B301A20182E493E00E94890DA3019201E0
:10216000C701B6010E942A176B017C0164EF71E080
:1021700080E090E00E94B4040150110909F0BBCF47
:1021800020E030E048E452E4C701B6010E949B170A
:102190002EEA37E44DE151E40E949B17609324013D
:1021A00070932501809326019093270166E771E0E3
:1021B00082E493E00E949F0D81E00E94D9096CE7C0
:1021C00071E082E493E00E949F0D409124015091C0
:1021D0002501609126017091270122E030E082E420
:1021E00093E00E94890D61E871E082E493E00E942F
:1021F0009F0D68EB7BE080E090E00E94B40490E0EB
:10220000292E90E0392E8EE00E947A04AC01990FBD
:10221000660B770B8DE693E00E945E0C68E571E03B
:102220008DE693E00E94030C60ED77E080E090E0A3
:102230000E94B4040E94E7062B013C0180E00E944A
:1022400059064B015C0181E00E9459066B017C013B
:10225000A3019201C301B2010E944D1A811110C065
:10226000A5019401C501B4010E944D1A811108C055
:10227000A7019601C701B6010E944D1A882391F06B
:102280006CEA71E08DE693E00E948B0D211431041D
:1022900009F4B9CF0E94EA02882309F4B0CF0E9462
:1022A0000000ADCF01E0A3019201C701B6010E9479
:1022B000ED0969837A838B839C8300E0A3019201FB
:1022C000C501B4010E94ED096D837E838F839887D9
:1022D00061EA71E08DE693E00E94A50722E030E01C
:1022E000B301A2018DE693E00E94890D60E971E0DF
:1022F0008DE693E00E94A50722E030E0B501A4013D
:102300008DE693E00E94890D6BE871E08DE693E025
:102310000E94A50722E030E0B701A6018DE693E018
:102320000E94890D69E771E08DE693E00E94A507A0
:1023300022E030E04D815E816F8178858DE693E00B
:102340000E94890D64E771E08DE693E00E94A50785
:1023500022E030E049815A816B817C818DE693E0F7
:102360000E94890D60E771E08DE693E00E948B0D7D
:102370000E9447056B017C010E9447056C197D098D
:102380008E099F09683E73408105910508F0D3C20C
:1023900085EA92E00E94DE02892B71F385EA92E0E1
:1023A0000E94BC02182F8091140490911504A091F2
:1023B0001604B09117040196A11DB11D8093140459
:1023C00090931504A0931604B0931704143209F4E3
:1023D00090C2E091120415320CF0D7C01A3019F0F7
:1023E0001D3009F094C2EF3008F0C1C09091110483
:1023F000F0E0EF5FFB4F108280910004882309F426
:1024000044C120910104822F022E000C990B3FEB56
:10241000320F363008F0C5C0C7978295807F909103
:102420000204292F092E000C330B4FEB490F4630C5
:1024300008F0BFC027533109820F9091FF03891321
:102440001AC180911304882309F491C08091180463
:102450009091190401969093190480931804809127
:10246000F3039091F403A091F503B091F6038093E8
:10247000EF039093F003A093F103B093F2038091E4
:10248000FB039091FC03A091FD03B091FE038093A8
:10249000F7039093F803A093F903B093FA038091A4
:1024A0001004882309F48EC0813009F060C0809147
:1024B000AF039091B003A091B103B091B2038093A8
:1024C000AB039093AC03A093AD03B093AE038091A4
:1024D000B7039091B803A091B903B091BA03809368
:1024E000B3039093B403A093B503B093B603809164
:1024F000BF039091C003A091C103B091C203809328
:10250000BB039093BC03A093BD03B093BE03809123
:10251000C7039091C803A091C903B091CA038093E7
:10252000C3039093C403A093C503B093C6038091E3
:10253000D7039091D803A091D903B091DA03809387
:10254000D3039093D403A093D503B093D603809183
:10255000DF039091E003A091E103B091E203809347
:10256000DB039093DC03A093DD03B093DE03809143
:1025700011048F5F809311041092120481E01A32CB
:1025800009F080E08093000403CF1A3209F42BCFC6
:102590001C3209F0BCC18091FF0381278093FF03A7
:1025A00022CF2156263018F48755910936CFC0978F
:1025B00034CF9156963018F4275531093DCF20532A
:1025C00031093ACF8091CF039091D003A091D103EC
:1025D000B091D2038093CB039093CC03A093CD030F
:1025E000B093CE038091AF039091B003A091B1035B
:1025F000B091B2038093AB039093AC03A093AD036F
:10260000B093AE038091BF039091C003A091C1032A
:10261000B091C2038093BB039093BC03A093BD030E
:10262000B093BE038091C7039091C803A091C903E2
:10263000B091CA038093C3039093C403A093C503CE
:10264000B093C6038091ED039091EE039093EC0359
:102650008093EB038091E7039091E803A091E90355
:10266000B091EA038093E3039093E403A093E5031E
:10267000B093E6037CCF80911A0490911B040196DD
:1026800090931B0480931A0472CF91111DC041E0F6
:1026900054E0A6E8B1E0CA01FC012191CF01222358
:1026A00009F494C33D912317B9F3ACE8B1E0FA0102
:1026B0008191AF01882309F48DC39D918917B9F3E6
:1026C00032E03093100453CFE0911004E23009F46B
:1026D0004ECF80910104882309F449CF20E2E29F84
:1026E000F0011124E92B3197E932F10508F03FCFD1
:1026F000E458FC4E0C94841BC213DD13F2130D142A
:1027000018145214591463146E14B712B712B71276
:10271000B712B712B712B712B712B712B712B71271
:10272000B712B712B712B712B712B712B712B71261
:10273000B712B712B712B712C213D713DD13F213C1
:102740000D14181433143E14A513E1E0F4E020E056
:1027500030E0A901019180ED800F8A3008F099C026
:10276000AAE0B0E00E948A1B202F000F330B440B1D
:10277000550B260F371F481F591F20533109410998
:102780005109E8CF0E9468016093AF037093B003D2
:102790008093B1039093B2030E9447056093F303C3
:1027A0007093F4038093F5039093F603E0CE91E0E9
:1027B000813409F47BC090E079C00E94DA01609313
:1027C000BF037093C0038093C1039093C2030E9420
:1027D00047056093FB037093FC038093FD03909384
:1027E000FE03C5CE833509F0C2CE8091BF03909120
:1027F000C003A091C103B091C203B095A09590957C
:1028000081959F4FAF4FBF4F8093BF039093C003FD
:10281000A093C103B093C203AACE0E94DA016093D1
:10282000C7037093C8038093C9039093CA039FCED4
:10283000873509F09CCE8091C7039091C803A09181
:10284000C903B091CA03B095A095909581959F4F0B
:10285000AF4FBF4F8093C7039093C803A093C903A2
:10286000B093CA0384CE0E9468016093D70370932B
:10287000D8038093D9039093DA0379CE0E9468013C
:102880006093DF037093E0038093E1039093E2038E
:102890006ECE2093B7033093B8034093B90350939F
:1028A000BA0365CE91E081330CF485CF9093130485
:1028B0005ECE81E094E00E94031799279093EE0387
:1028C0008093ED0354CE0E9468016093E7037093F8
:1028D000E8038093E9039093EA0349CE0E946801DC
:1028E0006093CF037093D0038093D1039093D2036E
:1028F0003ECE10921204109211041092FF0332E0A7
:1029000030931004109200041092130441CDEE3065
:1029100040F481E08E0F80931204F0E0EF5FFB4FF4
:10292000108380910004811133CD8091FF0318271B
:102930001093FF032DCD0E94E70480902401909016
:102940002501A0902601B0902701A50194010E94C5
:102950009B1748E151E00E94A10D69837A838B8324
:102960009C830E94E704A50194010E949B174CE000
:1029700051E00E94A10D6B017C010E94E704A501BA
:1029800094010E949B1740E051E00E94A10D4B0171
:102990005C0187E9C816D104E104F1040CF066C0BB
:1029A00020E034E940E456E4C301B2010E949617E6
:1029B00018160CF45BC061E087E00E948D0360E0B4
:1029C00086E00E948D0368EE73E080E090E00E9454
:1029D000B4040E94310980E00E94D90962E971E0E3
:1029E00082E493E00E949F0D81E00E94D90968EA89
:1029F00071E082E493E00E949F0DB701A60182E49A
:102A000093E00E945E0C6DEA71E082E493E00E9424
:102A10009F0D62EB71E082E493E00E949F0D49817B
:102A20005A816B817C8182E493E00E945E0C6DEAA6
:102A300071E082E493E00E949F0D6AEB71E082E412
:102A400093E00E949F0DB501A40182E493E00E94EF
:102A50005E0C6DEA71E082E493E00E949F0D68EEE7
:102A600073E080E090E00E94B40410CC0E94310931
:102A700080E00E94D90964EC71E082E493E00E9456
:102A80009F0D81E00E94D90968EA71E082E493E039
:102A90000E949F0DB701A60182E493E00E945E0CA4
:102AA0006DEA71E082E493E00E949F0D62EB71E0B9
:102AB00082E493E00E949F0D49815A816B817C8161
:102AC00082E493E00E945E0C6DEA71E082E493E0A0
:102AD0000E949F0D6AEB71E082E493E00E949F0DDB
:102AE000B501A40182E493E00E945E0C6DEA71E0FE
:102AF00082E493E00E949F0D8090BB039090BC0302
:102B0000A090BD03B090BE03C090C303D090C40397
:102B1000E090C503F090C6038091F7039091F8030D
:102B2000A091F903B091FA038F3F9F4FAF4FBF4F72
:102B300011F00E944705FFEF8F16F9EC9F06FAE9A6
:102B4000AF06FBE3BF0609F4BAC0C501B4010E9499
:102B5000451820E034E244E759E40E949B174B01FA
:102B60005C01C701B6010E94451820E034E244E749
:102B700059E40E949B176B017C0187ED91E00E9454
:102B8000900C68EE73E080E090E00E94B40481EE67
:102B900091E00E94900C68EE73E080E090E00E946B
:102BA000B40460E087E00E948D0360E086E00E944C
:102BB0008D0368EE73E080E090E00E94B4048BEF38
:102BC00091E00E94900C85E092E00E94900C87E2D8
:102BD00092E00E94900C68EE73E080E090E00E942A
:102BE000B4046DE372E08CE893E00E949F0D20E056
:102BF00030E04AE754E4C501B4010E949617811100
:102C000003C0812C912C540126E0B501A4018CE86D
:102C100093E00E94A30C68E571E08CE893E00E94C9
:102C2000030C69E472E08CE893E00E949F0D20E0C1
:102C300030E04AE754E4C701B6010E9496178111BB
:102C400003C0C12CD12C760126E030E0B701A601EB
:102C50008CE893E00E94890D60ED77E080E090E0E1
:102C60000E94B4040E94E7066B017C0180E00E9490
:102C700059062B013C0181E00E9459064B015C0181
:102C8000A7019601C701B6010E944D1A811110C01B
:102C9000A3019201C301B2010E944D1A811108C023
:102CA000A5019401C501B4010E944D1A882381F049
:102CB00060E571E08CE893E00E948B0DD0CE812C12
:102CC000912C8AE7A82E84E4B82E7501640155CFB3
:102CD00001E0A7019601C501B4010E94ED096983D5
:102CE0007A838B839C8300E0A7019601C301B20124
:102CF0000E94ED096D837E838F83988765E471E080
:102D00008CE893E00E94A50722E030E0B701A6011D
:102D10008CE893E00E94890D64E371E08CE893E015
:102D20000E94A50722E030E0B301A2018CE893E005
:102D30000E94890D6FE271E08CE893E00E94A50784
:102D400022E030E0B501A4018CE893E00E94890DF7
:102D50006DE171E08CE893E00E94A50722E030E08D
:102D60004D815E816F8178858CE893E00E94890DAA
:102D700068E171E08CE893E00E94A50722E030E072
:102D800049815A816B817C818CE893E00E94890D96
:102D900064E171E08CE893E00E948B0D68EE73E0D3
:102DA00080E090E00E94B4046AE18CE893E00E9425
:102DB000790268E571E08CE893E00E94030C68EE0C
:102DC00073E080E090E00E94B40449CE21E02093BB
:102DD0001004CDCB10921004CACBCF93DF93CCE27A
:102DE000D1E0D0936E03C0936D038DE693E00E9413
:102DF000FD07D0938D03C0938C038CE893E0DF91A3
:102E0000CF910C94FD07FC0188279927E894219124
:102E10002032E9F3293010F02E30C8F32B3241F084
:102E20002D3239F4689404C00E942117820F911D3D
:102E3000219120532A30C0F31EF4909581959F4F25
:102E400008957AE0979F902D879F802D910D1124F2
:102E500008955058BB27AA270E9441170C94BB180D
:102E60000E94AD1838F00E94B41820F039F49F3F4A
:102E700019F426F40C94AA180EF4E095E7FB0C94D0
:102E8000A418E92F0E94CC1858F3BA1762077307E9
:102E90008407950720F079F4A6F50C94EE180EF44B
:102EA000E0950B2EBA2FA02D0B01B90190010C015A
:102EB000CA01A0011124FF27591B99F0593F50F472
:102EC000503E68F11A16F040A22F232F342F4427CA
:102ED000585FF3CF469537952795A795F0405395C2
:102EE000C9F77EF41F16BA0B620B730B840BBAF092
:102EF0009150A1F0FF0FBB1F661F771F881FC2F7FD
:102F00000EC0BA0F621F731F841F48F48795779510
:102F10006795B795F7959E3F08F0B0CF9395880FCA
:102F200008F09927EE0F9795879508950E948018CD
:102F300008F481E008950E94AF170C94BB180E941A
:102F4000B41858F00E94AD1840F029F45F3F29F002
:102F50000C94A41851110C94EF180C94AA180E9408
:102F6000CC1868F39923B1F3552391F3951B550BB6
:102F7000BB27AA2762177307840738F09F5F5F4F4C
:102F8000220F331F441FAA1FA9F335D00E2E3AF08B
:102F9000E0E832D091505040E695001CCAF72BD0A3
:102FA000FE2F29D0660F771F881FBB1F26173707F4
:102FB0004807AB07B0E809F0BB0B802DBF01FF2726
:102FC00093585F4F3AF09E3F510578F00C94A41847
:102FD0000C94EF185F3FE4F3983ED4F38695779511
:102FE0006795B795F7959F5FC9F7880F911D9695DF
:102FF000879597F90895E1E0660F771F881FBB1F3B
:10300000621773078407BA0720F0621B730B840BE7
:10301000BA0BEE1F88F7E09508950E941418689483
:10302000B1110C94EF1808950E94D41888F09F579E
:1030300098F0B92F9927B751B0F0E1F0660F771FDC
:10304000881F991F1AF0BA95C9F714C0B13091F0D2
:103050000E94EE18B1E008950C94EE18672F782FB7
:103060008827B85F39F0B93FCCF386957795679597
:10307000B395D9F73EF490958095709561957F4F03
:103080008F4F9F4F0895E89409C097FB3EF49095A9
:103090008095709561957F4F8F4F9F4F9923A9F031
:1030A000F92F96E9BB279395F695879577956795C0
:1030B000B795F111F8CFFAF4BB0F11F460FF1BC004
:1030C0006F5F7F4F8F4F9F4F16C0882311F096E997
:1030D00011C0772321F09EE8872F762F05C0662345
:1030E00071F096E8862F70E060E02AF09A95660FFE
:1030F000771F881FDAF7880F9695879597F90895B7
:10310000990F0008550FAA0BE0E8FEEF16161706F8
:10311000E807F907C0F012161306E407F50798F060
:10312000621B730B840B950B39F40A2661F0232B79
:10313000242B252B21F408950A2609F4A140A695F5
:103140008FEF811D811D089597F99F6780E870E0DA
:1031500060E008959FEF80EC089500240A9416160D
:10316000170618060906089500240A941216130675
:10317000140605060895092E0394000C11F4882303
:1031800052F0BB0F40F4BF2B11F460FF04C06F5F1F
:103190007F4F8F4F9F4F089557FD9058440F551FF5
:1031A00059F05F3F71F04795880F97FB991F61F0C9
:1031B0009F3F79F087950895121613061406551F40
:1031C000F2CF4695F1DF08C0161617061806991FAC
:1031D000F1CF86957105610508940895E894BB27A1
:1031E00066277727CB0197F908950E94801808F485
:1031F0008FEF089516F00C948C1A0C94AA1868940A
:103200000C94A4180E94D418A8F39923C1F3AEF328
:10321000DF93CF931F930F93FF92C92FDD2788234E
:103220002AF02197660F771F881FDAF720E030E039
:1032300040E85FEB9FE3883920F0803E38F021962C
:103240008F770E942A17E8E6F0E004C00E942A1750
:10325000E5E9F0E00E94A11A8B01BE01EC01FB2E12
:103260006F5771097595771F880B990B0E94451848
:1032700028E132E741E35FE30E945D19AF2D980139
:10328000AE01FF900F911F91CF91DF910E944117E6
:103290000C94BB180E945D190C94BB180E94AD18C9
:1032A00038F00E94B41820F0952311F00C94A41863
:1032B0000C94AA1811240C94EF180E94CC1870F3E7
:1032C000959FC1F3950F50E0551F629FF001729FCB
:1032D000BB27F00DB11D639FAA27F00DB11DAA1FDA
:1032E000649F6627B00DA11D661F829F2227B00D27
:1032F000A11D621F739FB00DA11D621F839FA00DB2
:10330000611D221F749F3327A00D611D231F849F01
:10331000600D211D822F762F6A2F11249F57504058
:103320009AF0F1F088234AF0EE0FFF1FBB1F661FD3
:10333000771F881F91505040A9F79E3F510580F09C
:103340000C94A4180C94EF185F3FE4F3983ED4F368
:10335000869577956795B795F795E7959F5FC1F740
:10336000FE2B880F911D9695879597F90895FA0180
:10337000EE0FFF1F309621053105A1F16115710592
:1033800061F48038BFE39B0749F168949038810568
:1033900061F08038BFEF9B0741F099234AF5FF3F6A
:1033A000E1053105210519F1E8940894E795D90163
:1033B000AA2329F4AB2FBE2FF85FD0F310C0FF5F14
:1033C00070F4A695E0F7F73950F019F0FF3A38F4A9
:1033D0009F779F930DD00F9007FC9058089546F06B
:1033E0000C94AA1860E070E080E89FE308954FE72E
:1033F0009F775F934F933F932F930E9402192F91D2
:103400003F914F915F910E944A190C945A1A19F4F6
:1034100016F40C94AA180C948C1A0E94D418B8F3C1
:103420009923C9F3B6F39F57550B87FF0E949A1A49
:103430000024A0E640EA900180585695979528F41C
:10344000805C660F771F881F20F026173707480714
:1034500030F4621B730B840B202931294A2BA6956B
:1034600017940794202531254A2758F7660F771FB0
:10347000881F20F026173707480730F4620B730BBC
:10348000840B200D311D411DA09581F7B901842FBA
:103490009158880F9695879508950E948018880BFB
:1034A000990B089529F416F00C94A4180C94EE18B6
:1034B0000C94AA180E94D418A8F39638A0F707F81D
:1034C0000F92E8942BE33AEA48EB5FE70E94601919
:1034D0000F920F920F924DB75EB70F920E940A1B88
:1034E000E2ECF0E00E94A11A4F915F91EF91FF9101
:1034F000E595EE1FFF1F49F0FE57E0684427EE0FE9
:10350000441FFA95E1F74195550B0E94D41A0F908C
:1035100007FE0C94C81A08959F3F31F0915020F493
:10352000879577956795B795880F911D969587959F
:1035300097F9089591505040660F771F881FD2F772
:103540000895DF93CF931F930F93FF92EF92DF9233
:103550007B018C01689406C0DA2EEF010E945D1990
:10356000FE01E894A5912591359145915591A6F3D9
:10357000EF010E944117FE019701A801DA9469F753
:10358000DF90EF90FF900F911F91CF91DF91089501
:103590009B01AC0160E070E080E89FE30C949B1716
:1035A0000C94A4180C948C1A0E94D418D8F3992364
:1035B000C9F3940F511DA3F39150504094F059F06A
:1035C000882332F0660F771F881F91505040C1F753
:1035D0009E3F51052CF7880F911D9695879597F979
:1035E00008955F3FACF0983E9CF0BB278695779599
:1035F0006795B79508F4B1609395C1F7BB0F58F77D
:1036000011F460FFE8CF6F5F7F4F8F4F9F4FE3CF85
:103610000C94EF18FA01DC01AA0FBB1F9B01AC014F
:10362000BF5728F4222733274427507820C0B751AA
:1036300090F4AB2F0024469537952795011CA39550
:10364000D2F3002071F0220F331F441FB395DAF339
:103650000ED00C94291761307105A0E88A07B9468D
:1036600030F49B01AC016627772788279078309645
:1036700021F020833183428353830895DB018F93AC
:103680009F930E948A1BBF91AF91A29F800D911DB5
:10369000A39F900DB29F900D1124089597FB072EC4
:1036A00016F4009407D077FD09D00E949D1B07FCFB
:1036B00005D03EF4909581959F4F08957095619542
:1036C0007F4F0895A1E21A2EAA1BBB1BFD010DC05E
:1036D000AA1FBB1FEE1FFF1FA217B307E407F507C2
:1036E00020F0A21BB30BE40BF50B661F771F881F9E
:1036F000991F1A9469F760957095809590959B0134
:10370000AC01BD01CF010895EE0FFF1F0590F491AC
:10371000E02D09940E94B11BA59F900DB49F900DC0
:10372000A49F800D911D11240895B7FF0C948A1B4E
:103730000E948A1B821B930B0895AA1BBB1B51E19D
:1037400007C0AA1FBB1FA617B70710F0A61BB70B11
:10375000881F991F5A95A9F780959095BC01CD01B6
:103760000895A29FB001B39FC001A39F700D811D5A
:103770001124911DB29F700D811D1124911D08957A
:1037800011E0C5E0D1E004C0FE010E94841B219637
:0A379000C630D107C9F7F894FFCF47
:10379A003333134014AE073FAE47E1BE3333134011
:1037AA00EC51383F7B14AEBE333313403D0A573ECB
:1037BA00D7A3F0BE000020410000000049078002A4
:1037CA0092084807C407DC073007000000002003FE
:1037DA008002AD026D03DE02BC02D00200000000CE
:1037EA00E7098002920891080D0A006E616E00696D
:1037FA006E66006F76660043616C69627261746915
:10380A006E672E2E2E00646F6E652100526F3D206A
:10381A00006B6F686D004750524D43004750474751
:10382A004100436F6E63656E74726174696F6E20D6
:10383A006F66206761732000434F3A200020707042
:10384A006D002020204C50473A00202020536D6FF5
:10385A006B653A005741524E494E472044454E4700
:10386A004552212121210041542B434D47463D31E8
:10387A000041542B434D47533D222B3931393539B9
:10388A003230585858585858220D005761726E698C
:10389A006E67212100596F75206E65656420746F0B
:1038AA00207365727669636520796F75722063612A
:1038BA0072206173617000596F7572204C6F636179
:1038CA0074696F6E2069732068657265004C617453
:1038DA006974756465203D2000204C6F6E676974B9
:0838EA00756465203D2000001B
:00000001FF
